{
  "_format": "hh-sol-artifact-1",
  "contractName": "Transactions",
  "sourceName": "contracts/Transactions.sol",
  "abi": [
    {
      "anonymous": false,
      "inputs": [
        {
          "indexed": false,
          "internalType": "address",
          "name": "from",
          "type": "address"
        },
        {
          "indexed": false,
          "internalType": "address",
          "name": "to",
          "type": "address"
        },
        {
          "indexed": false,
          "internalType": "uint256",
          "name": "amount",
          "type": "uint256"
        },
        {
          "indexed": false,
          "internalType": "string",
          "name": "message",
          "type": "string"
        },
        {
          "indexed": false,
          "internalType": "uint256",
          "name": "timestamp",
          "type": "uint256"
        }
      ],
      "name": "Transfer",
      "type": "event"
    },
    {
      "inputs": [
        {
          "internalType": "address payable",
          "name": "to",
          "type": "address"
        },
        {
          "internalType": "uint256",
          "name": "amount",
          "type": "uint256"
        },
        {
          "internalType": "string",
          "name": "message",
          "type": "string"
        }
      ],
      "name": "addToBlockchain",
      "outputs": [],
      "stateMutability": "nonpayable",
      "type": "function"
    }
  ],
  "bytecode": "0x608060405234801561001057600080fd5b50610430806100206000396000f3fe608060405234801561001057600080fd5b506004361061002b5760003560e01c8063eb12da4a14610030575b600080fd5b61004a60048036038101906100459190610122565b61004c565b005b7fc4b32d7ff75a51e487f3cbb5d3202f2efecca1f4c2b987e0039c1d3220b48a8333848484426040516100839594939291906101ef565b60405180910390a1505050565b60006100a361009e8461027a565b610249565b9050828152602081018484840111156100bb57600080fd5b6100c684828561034a565b509392505050565b6000813590506100dd816103cc565b92915050565b600082601f8301126100f457600080fd5b8135610104848260208601610090565b91505092915050565b60008135905061011c816103e3565b92915050565b60008060006060848603121561013757600080fd5b6000610145868287016100ce565b93505060206101568682870161010d565b925050604084013567ffffffffffffffff81111561017357600080fd5b61017f868287016100e3565b9150509250925092565b61019281610314565b82525050565b6101a1816102c6565b82525050565b60006101b2826102aa565b6101bc81856102b5565b93506101cc818560208601610359565b6101d5816103bb565b840191505092915050565b6101e98161030a565b82525050565b600060a0820190506102046000830188610198565b6102116020830187610189565b61021e60408301866101e0565b818103606083015261023081856101a7565b905061023f60808301846101e0565b9695505050505050565b6000604051905081810181811067ffffffffffffffff821117156102705761026f61038c565b5b8060405250919050565b600067ffffffffffffffff8211156102955761029461038c565b5b601f19601f8301169050602081019050919050565b600081519050919050565b600082825260208201905092915050565b60006102d1826102ea565b9050919050565b60006102e3826102ea565b9050919050565b600073ffffffffffffffffffffffffffffffffffffffff82169050919050565b6000819050919050565b600061031f82610326565b9050919050565b600061033182610338565b9050919050565b6000610343826102ea565b9050919050565b82818337600083830152505050565b60005b8381101561037757808201518184015260208101905061035c565b83811115610386576000848401525b50505050565b7f4e487b7100000000000000000000000000000000000000000000000000000000600052604160045260246000fd5b6000601f19601f8301169050919050565b6103d5816102d8565b81146103e057600080fd5b50565b6103ec8161030a565b81146103f757600080fd5b5056fea264697066735822122091b6cbb17ef85615c2344bfd478721d24ec54fbfd2caa5bf09f4c88e893a431564736f6c63430008000033",
  "linkReferences": {},
  "deployedLinkReferences": {}
}